:1000000000230020A92E0000A52E0000A52E000030
:1000100000000000000000000000000000000000E0
:10002000000000000000000000000000A52E0000FD
:100030000000000000000000A52E0000A52E00001A
:10004000A52E000031020000A52E0000A52E000004
:10005000A52E0000A52E0000A52E0000A52E000054
:10006000A52E000005130000151300002513000045
:100070003513000045130000551300002927000028
:100080003927000049270000A52E0000A52E0000FA
:10009000A52E0000A52E0000A52E0000D90A000004
:1000A000A52E0000A52E0000A52E0000A52E000004
:1000B0000000000010B5064C2378002B07D1054B3B
:1000C000002B02D0044800E000BF0123237010BDC4
:1000D00068000020000000000C570000084B10B51D
:1000E000002B03D00749084800E000BF0748036819
:1000F000002B00D110BD064B002BFBD09847F9E731
:10010000000000006C0000200C5700000C5700009D
:100110000000000010B58CB068461E4B9847F023D5
:100120001B05029380239B006A465380FF3BFF3BE5
:100130005370002313731371012269460A756A46CE
:100140008B74154C15492000154B98472268537E37
:100150005BB2002BFBDB80210904124B19600F23DB
:1001600093751376137802210B4313700A4B1A68A8
:10017000537E5BB2002BFBDB537E5BB2002BFBDBC1
:10018000137B02210B431373537E5BB2002BFBDB0B
:100190000CB010BD69060000A40100200040004220
:1001A000B106000000E100E030B583B0164B1868DE
:1001B00001210425022401E011420AD1037EDBB2B1
:1001C0000A001A401D4200D022431C42F4D02A43A8
:1001D000F2E7437E5BB2002BFBDB428B01AB1A8064
:1001E00001230376027ED2B21340510701D50221CA
:1001F0000B43920701D5042213435B0701D5022369
:100200000376019803B030BDA401002010B5064B61
:100210009847162802D0002801D110BDFEE7034BF5
:100220009847014B9847F8E7292900000D2A00005C
:1002300010B5064B9B685B0500D410BD8022D20030
:10024000024B9A60024B9847F7E7C046000800400F
:10025000052C000000B583B000236A46138053804C
:1002600001339371D3710F33137120335371694686
:100270000020074B9847074B5A6B02210A435A63E9
:100280008022D2005A60044B196003B000BDC04602
:10029000990B00000008004000E100E070B5060086
:1002A0000C4B1B885B180C4A934202DD0022094B61
:1002B0001A808CB2074D288822003100074B9847DE
:1002C000298864182C80064B9847002800D0FEE748
:1002D00070BDC046840000209F0F0000C92D0000A3
:1002E000052C000010B5094B1C882000084B9847CE
:1002F0000100084B186022000020074B9847002897
:1003000000D0FEE7034B186810BDC04684000020F3
:1003100011420000C4010020552B00000022034BB5
:100320001A60034B18881A807047C046C401002029
:100330008400002070B5AAB0114E01AC310020003D
:10034000104B984780235B01636002222276E361B1
:10035000013A9823E254923BA365023BA3670A4DFE
:10036000220031002800094B98472A68022193682F
:100370001942FCD1136802210B4313602AB070BDEF
:1003800000240042B5200000C80100200122000026
:1003900010B5020000210248024B984710BDC0462C
:1003A000C80100207526000070B5AAB00E4E01AC41
:1003B000310020000D4B98470123A3720433E372F0
:1003C0000B4B63600B4D2200310028000A4B98470D
:1003D0002A68022193681942FCD1136802210B4359
:1003E00013602AB070BDC04600200042B520000056
:1003F000D0121300080200200122000010B5054CA5
:10040000002205492000054B984700212000044B9D
:10041000984710BD08020020913100008526000099
:100420009D26000010B50248024B984710BDC046FB
:10043000080200203D26000010B501000148024BD3
:10044000984710BD080200200D26000070B582B04C
:1004500005000E0000226B46DA80064C6B46991DA3
:100460002800A0470028F9D16B4606331B8833705B
:1004700002B070BDD516000070B505008CB2034EF9
:1004800021002800B0470028FAD170BDA91600004D
:1004900070B590B08023DB05009300230193FF2209
:1004A00069460A8100228B72CB72962189010891DC
:1004B000012124206C4621540130215425316354FC
:1004C000013163540A930531635401316354059338
:1004D0002382E3762276227762761323A3766277ED
:1004E00080235B0303931E4B0C931E4B0D93012340
:1004F0005B420E930F931C4D1C4C6A461C4928000E
:10050000A0470028F9D1184C1A4B1C601A4A1B4B03
:100510001A601B4A1B4B1A606A4615492000134B90
:100520009847194E336898680021184DA8473368DA
:1005300058680021A84725682800154B98471F23B5
:1005400018401E3B8340134A13602268D369002B76
:10055000FCD12B68022213432B60034810B070BDFE
:100560000200160002001700480200206513000078
:1005700000140042AC02002079040000A802002010
:100580004D040000A402002004000020C544000027
:10059000D512000000E100E010B5064C012206492A
:1005A0002000064B98473122A35C02210B43A35441
:1005B00010BDC046480200202932000095170000F7
:1005C0000C4B1B68002B06D1EFF31083002B07D0D8
:1005D0000022094B1A70074A1368013313607047F1
:1005E00072B6BFF35F8F0022044B1A700132024BC8
:1005F0001A70F0E7880000208C0000200000002026
:10060000084B1A68013A1A601B68002B09D1064B87
:100610001B78002B05D00122044B1A70BFF35F8FAB
:1006200062B67047880000208C0000200000002087
:10063000F0B583B001AC012565700027A770257067
:1006400021003E20064EB0478022D205054B9A611C
:100650002770657021000F20B04703B0F0BDC04681
:10066000FD0E00008044004110B5002200230270FE
:10067000427000214280017103760262C261826091
:100680000373C0246401C481037443748374C3740A
:1006900003752A24035543758375063C0355C284AC
:1006A0000285C1752B23C1540133C15410BD000014
:1006B000F0B5D6464F464646C0B596B00700160080
:1006C0000160C64A106A80235B02034313620B7801
:1006D0000520DB0705D516B01CBC90469946A246FE
:1006E000F0BD0B7817309B07F5D473783B71002B66
:1006F00004D1BB4A136C04210B4313640023BB6079
:10070000FB603B61BB76FB763B833B77B54B1F6061
:100710002A23F35C002B05D1337D002B02D101335A
:100720007B7701E000237B773B68984633786A4605
:10073000137069461E20AC4B98471E20AB4B984760
:100740002C23F25C002A54D0013BF55C337BEB1880
:10075000DBB2D118C9B28B4221D25219D3B2994619
:10076000A34B9A4603E00135EDB24D4517D00F2457
:100770002C40337BE41850229E4902A8D047132C0A
:10078000F1D8A40002ABE05801A900234B70CB7054
:100790008B7001330B70C0B2974B9847E3E7F48935
:1007A0005022944902A8924B9847132C13D9737D79
:1007B0009B00DBB242461370B37DDB0172781343BA
:1007C000DBB2424653703379342B00D97BE19B0076
:1007D0008A4AD3589F46A40002ABE05801A90023DF
:1007E0004B70CB708B7001330B70C0B2824B98474B
:1007F000DDE7347B50227F4902A87D4B9847132CBC
:1008000015D9F48950227B4902A8794B9847132CBB
:10081000CDD8A40002ABE05801A900234B70CB70E7
:100820008B7001330B70C0B2734B9847BFE7A400C5
:1008300002ABE05801A900234B70CB708B700133E1
:100840000B70C0B26C4B9847DBE7042310240221E5
:100850001AE0717C337C102416E006231024012159
:1008600012E00823102400210EE000233024002190
:100870000AE000232024002106E0002300240021B8
:1008800002E0022310240121090170220A401343CF
:1008900042469370F37D17203F2B00D91BE7D3709E
:1008A0003A68537E5BB2002BFBDBF37C7288134308
:1008B0002422B25CD2001343327D92001343B27CF7
:1008C00052001343234342469380337E002B20D0B3
:1008D000102C00D1D9E000D898E0202C00D1B6E04F
:1008E000302C16D1F27C002A0AD0F269803217200F
:1008F000FF2A00D9EFE6326A8032FF2A00D9EAE601
:100900001720F269FF2A00DDE5E6326AFF2A00DDE2
:10091000E1E639684A7E52B2002AFBDB4246137296
:100920003A68537E5BB2002BFBDBB38B424693836A
:100930003A68537E5BB2002BFBDB338C4246138458
:100940002C23F35C002B05D0013BDBB217200F2BCF
:1009500000D9C0E62B22B15C17200F2900D9BAE6D6
:100960003868427E52B2002AFBDBF289307B0243B8
:10097000B068024309050A431B041343424613614E
:100980002A23F35C13750F2393751533F35C002B47
:1009900012D0F38C1A4A1720934200D99BE64246A4
:1009A0009384328D80231B01D31815499BB28B424F
:1009B00000D990E64346DA84124B1B685B01E022C3
:1009C000D2001340104A516849011268D20E0A43FE
:1009D000D2B213434246138500207CE60004004057
:1009E000000800407C020020B51E0000291E000007
:1009F00025420000C8530000AD1F0000F452000063
:100A0000FF0F00002460800020608000002C00D0D8
:100A10007FE7F27C002A0FD0F269802109018C4621
:100A200062442A4917208A4200D954E6326A624455
:100A300026498A4200D94EE6244A1720F16991429C
:100A400000DD48E6316A914200DD44E661E7F27C70
:100A5000002A0FD0F269802189008C4662441C492B
:100A600017208A4200D936E6326A624418498A421F
:100A700000D930E6164A1720F169914200DD2AE6D6
:100A8000316A914200DD26E643E7F27C002A0FD06E
:100A9000F269802109028C4662440E4917208A427D
:100AA00000D918E6326A62440A498A4200D912E63D
:100AB000084A1720F169914200DD0CE6316A914243
:100AC00000DD08E625E7172005E6C046FF0F000019
:100AD000FF030000FFFF000070B52E4B1C68236869
:100AE0001D7EEDB2EA0705D5E27ED20702D5A27ED1
:100AF000D20716D46B0708D5042322681376E37E49
:100B00009B0702D5A37E9B073CD4AB0708D50223E5
:100B100022681376E37E5B0702D5A37E5B0735D49C
:100B200070BD01221A762268537E5BB2002BFBDB7C
:100B300061698B1C6361538B9BB20B80238B013BE0
:100B40009BB22383002B11D0637F002BD2D022686D
:100B5000537E5BB2002BFBDB137B02210B43137331
:100B60002268537E5BB2002BFBDBC3E7237F052BA0
:100B7000C0D1002323770133226893752000A36836
:100B80009847B7E72000E3689847BEE7236920004D
:100B90009847C5E77C02002010B51B4B5B6B9B0799
:100BA00004D5194A536B0224A34353634A880B8824
:100BB0000C792343134380246400A2420DD08A7928
:100BC000002A01D004221343CA79002A01D040220E
:100BD0001343002805D0172010BD80229200134334
:100BE000EDE74A7917303F2AF6D81204FC21890331
:100BF0000A401343044A5363110080221201CB6858
:100C00001342FCD00020E7E70008004010B51E4A60
:100C1000D36904210B43D3611C4B2022FF321A837A
:100C20001A7D0523D20701D4180010BD03781B02DA
:100C3000C022920013404178C901FF220A401343A9
:100C4000817849001E220A401343C2789204802111
:100C5000C9020A40134302791204C02189020A40E2
:100C600013430A4A536093685B035B0F08490824E7
:100C70009C400C8093684B8043780B71138BDB0591
:100C8000DB0F1B01D0E7C0460004004000400041DC
:100C90009000002030B50400224A10885388434356
:100CA0008B4206D28022920118201F4BCB18934210
:100CB0000ED81E4B5D688022D2022A435A60202241
:100CC000FF321A831B7DDB0703D4184B5D600520C0
:100CD00030BD452C22D8A300154AD3589F46134B4C
:100CE0001B8BDB0503D5114B5D601020F0E78908F5
:100CF00049000E4BD96103E0890849000B4BD961CB
:100D0000A52000020443094B1C80190001220B7D21
:100D10001342FCD0054B5D600020D9E7034B5D60BA
:100D20001720D5E79000002000C07FFF0040004161
:100D300018540000F8B5254B1D885B886B431824B8
:100D4000834201D22000F8BD6B1E1842FAD1013C4B
:100D50009542F7D31E4B1B7D123CDB07F2D51D4C91
:100D60001B4B1C801D0001242B7D2342FCD0202422
:100D7000FF34174B1C83002A22D0012305009D431A
:100D80000023571E09E0CE187678360234432C80B3
:100D900002339BB202359A4204D9CC5CBB42F2DBEF
:100DA000A4B2F4E7094B1B790024002BCAD13F2AD7
:100DB000C8D8002201000420074B98470400C1E76F
:100DC000024B1B790024002BF3D0BBE790000020DE
:100DD0000040004144A5FFFF950C000070B5184B82
:100DE0001D885B886B431824834201D2200070BDAC
:100DF0006B1E1842FAD1013C9542F7D3114B1B7D73
:100E0000123CDB07F2D52024FF340E4B1C83002A52
:100E100014D0012398430023561E04E002339BB2F2
:100E200002309A4208D90488A4B2CC54B342F5DA0D
:100E3000CD18240A6C70F1E70024D7E70024D5E729
:100E40009000002000400041134B1A885B885343F8
:100E50001821834201D2080070479200013A1042E3
:100E6000F9D10E4B1B7D1339DB07F4D50B4B202238
:100E7000FF321A8380084000D861094A1A8019009D
:100E800001220B7D1342FCD0044B198B1C20014026
:100E9000481E81418900DEE79000002000400041AB
:100EA00002A5FFFF134B2022FF321A8399684A03E1
:100EB000520F08239340037041800F4B1B885B0641
:100EC0005B0F072B10D00622D21A042393404360F5
:100ED000094B1B8807221340072B08D00722D21A80
:100EE000042393408360704700234360F0E70023AE
:100EF0008360F8E7004000410040800000B583B007
:100F000001AB80221A700A785A704A789A708A78EF
:100F1000DA701900014B984703B000BDAD1F000007
:100F2000F0B5DE4657464E464546E0B587B08046AA
:100F3000049116001F000022002300218B463F244D
:100F400001202100009601975C46039444460594D5
:100F500013E02024641A0500E540A84614E0009C34
:100F6000019D121BAB415C464D462C43A346039C9E
:100F700045462C430394013925D3202464420C199F
:100F8000E7D40500A540A84604008C40A14692186D
:100F90005B4114001D00059E4F463E40B446049E32
:100FA00047463E40B246664657463E4303D006009B
:100FB000264332002B00009C019D9D42DBD8CED100
:100FC0009442D8D8CBE7039B5846190007B03CBCE5
:100FD00090469946A246AB46F0BD10B5490840235D
:100FE0000024814202D2180010BD1C00091A631CA3
:100FF0009BB28842F9D94023FF2CF4D814800023F7
:10100000F1E70000F0B583B00F00160008AA1178D0
:1010100004004C434022BC4202D9100003B0F0BD92
:10102000002B14D1020008000021194CA047010038
:101030003A0000230020174CA04700220123121A77
:101040008B41120C1B041A4332800022E5E7002278
:10105000012BF9D10A00002300210D4CA04702000A
:101060000B0000920193380000210A4CA0470500B4
:1010700080239B0140229842CFD8790FF800009A34
:10108000019BA047EA00821AD2B252032A43DBE74F
:1010900049340000210F000010B582B004000E4B4F
:1010A0001B78002B07D0002905D10B4B5B788342BE
:1010B00010D01D200CE001A90C701320074B98479D
:1010C0001320074B9847044B5C7001221A700020D4
:1010D00002B010BD0020FBE798000020B51E000004
:1010E000291E0000404B984231D00AD93F4B98420C
:1010F0004DD03F4B98425AD03E4B984237D00020BB
:1011000070473D4B98420CD03C4B9842F7D1012997
:1011100017D000295DD0022915D0032915D0002051
:10112000EEE7012907D0002951D0022905D0032973
:1011300005D00020E4E73248E2E73248E0E73248F1
:10114000DEE73248DCE73248DAE73248D8E70129FF
:1011500007D000293FD0022905D0032905D000205F
:10116000CEE72D48CCE72D48CAE72D48C8E701292E
:1011700007D0002931D0022905D0032905D000204D
:10118000BEE72848BCE72848BAE72848B8E701295D
:1011900007D0002923D0022905D0032905D000203B
:1011A000AEE72348ACE72348AAE72348A8E701298C
:1011B00007D0002915D0022905D0032905D0002029
:1011C0009EE71E489CE71E489AE71E4898E71E487F
:1011D00096E7032094E71D4892E71D4890E71D48D5
:1011E0008EE71D488CE7C046001000420018004200
:1011F000001C00420014004200080042000C0042A3
:1012000003000500030006000300070003000100BF
:1012100003001E0003001F000300090003000A0072
:1012200003000B0003001100030012000300130071
:1012300003000D0003000E0003000F000300170061
:101240000300180003001900030004000300080055
:101250000300100003000C000300160030B587B037
:101260000B4B6A4632CB32C232CB32C2009B834236
:101270000BD001239A0069465258824206D00133AE
:10128000062BF7D1002007B030BD0023D8B2FAE713
:101290003055000070470000F0B50A4B1B78002B5A
:1012A0000CD1094F094E0A4D0024DE515A19146021
:1012B0000433182BF9D10122024B1A708000024B23
:1012C000C150F0BD9A0000209C0000209512000043
:1012D0008002002000B583B009236A4613700133F1
:1012E0005370013393700133D370013313710133A1
:1012F0005371034B98476B46185603B000BDC04668
:101300005D12000010B5024B1B680020984710BD0D
:101310009C00002010B5024B5B680120984710BD6F
:101320009C00002010B5024B9B680220984710BD1E
:101330009C00002010B5024BDB680320984710BDCD
:101340009C00002010B5024B1B690420984710BD7B
:101350009C00002010B5024B5B690520984710BD2A
:101360009C000020F0B5DE4657464E464546E0B5A7
:1013700091B005000C00160029600800BC4B98478E
:10138000020023680520DB0706D511B03CBC90465F
:101390009946A246AB46F0BD236817309B07F4D4AC
:1013A000B449086A971C0123BB4003430B620FA991
:1013B0002D27F35D0B701432D3B202931800AE4B9D
:1013C00098470298AD4B9847F05D0021AC4B984789
:1013D000F37A6B712423F35CAB712523F35CEB711F
:1013E000F37E2B72337F6B722B6898461800A04BEC
:1013F0009847143000220E2306A98C4663441A80B5
:10140000328A02928023DB019A4200D19EE00FD9FA
:10141000C023DB01029A9A4200D192E080231B0292
:101420009A4200D01FE1032306930023079308E0AC
:1014300080239B019A4200D015E1102306930F3BB5
:10144000079333680593F368039373690493337EBA
:101450009B462623F35C9A4673689946002B00D17D
:10146000A0E080235B05994500D184E0737E002BCA
:1014700002D0B37E424693732A68029FD369002B41
:10148000FCD10E3306AA944663441B8842469381DE
:10149000059B039A1343049A13434A4613431F437D
:1014A0005B461B021F4353465B071F432723F35C26
:1014B000002B01D104331F43737E9B02327F520203
:1014C0001343727F120213432422B25C520413436B
:1014D0002522B25C12041343B17AF27A1143194304
:1014E0003389FF2B00D181E0802252041743194336
:1014F0002C23F35C002B03D1624B9B789B0701D517
:1015000080231F432A68D369002BFCD143465960CE
:101510002A68D369002BFCD143461F600EAB8022A2
:101520001A7000225A70DA709A70336B0A93736BD8
:101530000B93B36B0C93F36B02930D9300270AAEDE
:1015400063E008230693073B07937AE73368059324
:10155000F368039373690493337E9B462623F35CFD
:101560009A4673689946002B18D080235B059945ED
:1015700001D0002025E02723F35C002B00D075E785
:10158000336A1F00C0B2404B984701000E2206ABE1
:101590009C46624438003D4B984712E0082306936E
:1015A000002307932723F35C002B0ED0069B0093A8
:1015B000079B0E2206A98C466244B16A306A344FFA
:1015C000B847002800D0E0E650E7336A1F00C0B2F9
:1015D0002D4B98470100069B0093079B0E2206A8FF
:1015E0008446624438002A4FB847EAE7F37E002B6E
:1015F00000D17DE78023DB041F4379E72000254BE2
:10160000984707E00137042F0DD0F9B2BB00985975
:101610000028F3D0431CF5D00EA90870000CC0B20E
:101620001D4B9847EEE70023EB602B616B61AB61CC
:10163000EB612B62AB626B620022EB85AB853033D2
:10164000EA540133EA540133EA540133EA54286876
:10165000074B984704001149114B9847A400114BC0
:10166000E550002091E61023069300230793E8E657
:101670005D12000000040040B51E0000291E00009D
:101680009910000000200041D11E0000DB0F000077
:1016900005100000E5100000AD1F0000CD17000090
:1016A0009912000080020020C2791C23002A01D177
:1016B00018007047C28D92B2173B002AF8D1036818
:1016C000DA69002AFCD1198502211A7E0A42FCD06F
:1016D0000023EDE782791C23002A01D1180070470E
:1016E000828D92B2173B002AF8D10268107E400723
:1016F000F4D5D369002BFCD1538BDBB298061DD0F7
:10170000980703D5022353831833E7E7580703D517
:10171000042353831A33E1E7D80703D50123538306
:101720001233DBE7D80603D5102353833233D5E7D2
:101730009B0603D5202353832133CFE7138D0B80E2
:101740000023CBE7F8B504000D00160007680F4B27
:101750009847A38D9BB2002B03D00D4B98470520D3
:10176000F8BDA6850A4B9847656205223223E254EC
:101770002E3BBB75237A002B01D02023BB75637AE7
:101780000020002BECD00823BB75E9E7C105000061
:1017900001060000931C9B00C318596030210123EF
:1017A00093401A00435C13434354704710B517230A
:1017B000002A01D1180010BD84790533002CF9D01E
:1017C000014B98470300F5E745170000F8B5800086
:1017D000624BC5582C68E369002BFCD1237EA67DA3
:1017E0001E403023EB5C3122AF5C1F40F30722D553
:1017F000EB8D9BB2002B1CD0AA6A1378DBB2511C74
:10180000A962697901290ED09BB2DB05DB0D238526
:10181000EB8D013B9BB2EB85002B0CD10133237583
:101820000133A37507E0517809020B430232AA6223
:10183000EBE701232375B30706D5022323750022A6
:101840003133EA54FB071AD4730765D5AB8D9BB2CD
:10185000002B5FD0638BDBB21A0714D43F221340F6
:10186000002B34D09A0711D51A223223EA54303B88
:1018700063837B0750D528006B6998474CE02800AC
:10188000EB689847E0E737221340E9E75A0705D5A8
:101890001E223223EA542E3B6383EAE7DA0705D59A
:1018A00013223223EA54313B6383E2E7DA0605D59B
:1018B00042223223EA54223B6383DAE720221A428F
:1018C000D7D021323223EA54123B6383D1E7238DF0
:1018D000DB05DB0DDAB2696A0A706A6A511C69625B
:1018E0006979012910D0AB8D013B9BB2AB85002BF0
:1018F00012D10433237500222E33EA54BB070BD5D3
:1019000028002B69984707E01B0A53706B6A013364
:101910006B62E8E704232375F30604D510232375CF
:101920002376FB060ED4B30604D520232375237635
:101930003B070BD4330704D5082323752376BB0656
:1019400008D4F8BD2800EB699847ECE72800AB699C
:101950009847EFE72B6A28009847F2E780020020BB
:1019600010B5082803D880001B4B1B589F46002049
:1019700030E01A4B18692DE0194B1B6A9B059B0F31
:101980001848D84026E0154B586923E0134B1B68D4
:1019900000209B071ED512491022CB681A42FCD0AA
:1019A0000E4B1B685B0701D40F4813E000200F4B60
:1019B00098470A4B9B681B041B0C58430AE05023B2
:1019C000074AD35C00205B0704D5044BD86801E0CC
:1019D0008020000210BDC04648550000B400002021
:1019E0000008004000127A00006CDC02D11E0000EA
:1019F00070B50C490B6A0478857840780122104054
:101A000080014026B34303432A40D2018020834310
:101A100013430322224012020348034013430B6284
:101A200070BDC04600080040FFFCFFFFF0B5DE4679
:101A300057464E464546E0B50100264B9B469B8ADD
:101A4000457800784242424191468878CA78944667
:101A50000A7990464E7B0F7B8C7B8A681E494A61CF
:101A600001214A4692009146042293434A46134379
:101A700042460A40D200904608229343424613430E
:101A800062460A4012019446102293436246134371
:101A9000084040012022934303430F40BF014020F0
:101AA00083433B430E40F601403083433343793850
:101AB00005402D02094803402B43214009030848F3
:101AC00003400B435A4693823CBC90469946A2463B
:101AD000AB46F0BD00080040B4000020FFF8FFFF57
:101AE000FFEFFFFF082803D88000254B1B589F46B7
:101AF000172044E0234A136A02210B43136200209B
:101B00003DE0204A936902210B439361002036E0B7
:101B10001C4A138A02210B43138200202FE0194A2A
:101B2000938A02210B439382002028E016490B6818
:101B3000022213430B60134B9A8419000E32CB68B8
:101B40001A42FCD0104A91680E4BD96252689A62D0
:101B500000229A8419001032CB681A42FCD00A4B3A
:101B60001B689BB2074A9384002008E00549442281
:101B70008B5C022003438B54002000E00020704760
:101B80006C55000000080040B4000020F0B589B09A
:101B9000C222D2002F4B9A602F4A53681E218B43DA
:101BA000536002236A46137000242C4DE0B269464C
:101BB000A8470134252CF9D104A8002303708370B1
:101BC000802212028260C370012202710373837348
:101BD000053242704373224B98470520214B9847AA
:101BE0001C490222CB681A42FCD01A4A938A8021EF
:101BF0000B43938203A80024447001258570047070
:101C0000194B98470620174B9847184B9847019552
:101C10006B465C701C725C7205236A4613706946E1
:101C20000120134FB8470120124EB047124B1C72CF
:101C30005C729C72DC7201956B465C7006236A468E
:101C400013701472547269460020B8470020B047E0
:101C500009B0F0BD0008004000400041B51E000082
:101C60002D1A0000E51A0000F11900007D1C00008B
:101C7000A11C0000591D000000040040064A9369A1
:101C800008210B4393610122044B1A7019000B7851
:101C90001342FCD17047C04600040040000C0040D5
:101CA00070B5060004000D782D0205434B78002B1B
:101CB00002D08023DB021D434B7A002B02D080230D
:101CC0001B031D434868012810D9431E184234D114
:101CD000022830D90223002201325B009842FBD84F
:101CE00012023243140080235B031D430B7A002B46
:101CF00002D080239B031D43134A53785BB2002B11
:101D0000FBDB124B9847124B1E700F4A53785BB2A5
:101D1000002BFBDB0C4B9C601A0053785BB2002B52
:101D2000FBDB094A5368802149020B401D43556083
:101D3000084B984770BD0022D2E704023443802349
:101D40009B021D43D2E7C046000C0040C1050000C5
:101D5000080C00400106000010B504000B4A53783F
:101D60005BB2002BFBDB0A4B98470A4B1C70074AFF
:101D700053785BB2002BFBDB044A516880235B0283
:101D80000B435360044B984710BDC046000C004005
:101D9000C1050000040C00400106000070B50400FD
:101DA0001A4A53785BB2002BFBDB194B9847194B4F
:101DB0001C70164A53785BB2002BFBDB134E706825
:101DC000C004C00E144B98470500124B1C70766877
:101DD000F602F60F114B1C700C4A53785BB2002BC5
:101DE000FBDB0A4B9C682402240C0D4B9847002E09
:101DF00007D1012C07D9210028000A4B984705007C
:101E000001E00134E540280070BDC046000C0040F0
:101E1000C1050000040C004061190000080C0040DE
:101E2000010600003133000010B50400064B98474E
:101E3000064B1C70064A53888021C9010B4353800E
:101E4000044B984710BDC046C1050000020C00407D
:101E5000000C00400106000010B504000F4B98472D
:101E60000F4B1C700F4A53881B05180F53880E49DF
:101E70000B40538053880D490B4053801100802242
:101E8000D2014B881342FCD106494A880302064816
:101E9000024013434B80064B984710BDC10500001C
:101EA000020C0040000C0040FFF0FFFFFFBFFFFFEF
:101EB0000106000010B50C7824020443024B984739
:101EC000A4B2024B5C8010BD591E0000000C004003
:101ED00010B50400064B9847064B1C70064B5C88F7
:101EE0002405240F054B98472000054B984710BD4B
:101EF000C1050000020C0040000C0040010600007B
:101F00009D1D000030B5D378002B35D11378802B80
:101F100029D01B0680246402234354780225AC4355
:101F200006D19478002C20D18024A4022343416060
:101F30005478013C012C1CD90D042D0CA024E4057F
:101F40002C431C4384620D0CD02424062C431C43D8
:101F50008462D478002C22D15B031CD59378012BAA
:101F60001ED0416117E00023D7E7C024E4022343D9
:101F7000DDE70D4C2340DFE741600C04240CA02377
:101F8000DB05234383620C0CD0231B0623438362AF
:101F9000D378002B03D15378013B012B02D930BDFC
:101FA0008161F8E78160FAE7FFFFFBFF10B50A00E7
:101FB000C1090023002904D14309DB0105498C46EE
:101FC00063441F242040012181401800024B9847A0
:101FD00010BDC04600440041051F000070470000CE
:101FE00010B5054B9847054B9847054B9847054B4F
:101FF0009847054B984710BD8D1B00003106000027
:10200000DD1F0000DD1F0000DD1F0000094B9842AE
:102010000CD0094B984207D0084A0023904201D0C7
:1020200018007047023302E0012300E00023DBB216
:10203000F6E7C0460020004200240042002800428B
:10204000F8B50F0015001E0004682000164B9847D5
:10205000164B1A5C1723BA4201D81800F8BD80004D
:10206000134BC2581723AA42F7D3002E10D0802258
:102070005202BA40236B1A42FCD180221203BA40AA
:10208000A3681A42FCD11C37BF003D510023E4E78E
:1020900080225200BA40A3681A42FCD11037BF0018
:1020A000E41965600023D8E70D2000009C5500006E
:1020B000A455000010B5040008004F4B98470023BA
:1020C000236080004D4A82586260A372E3722373DA
:1020D00063722372E36123626362A3622375637593
:1020E000A375E3752376637623746374A374E37432
:1020F0002C22A3540132A3540132A3540132A3541D
:102100000132A3540132A3540132A3540132A35427
:102110000132A3540132A3540132A3540132A35417
:102120000132A3540132A3540132A3540132A35407
:102130000132A3540132A3540132A3540132A354F7
:102140000132A3540132A3540132A3540132A354E7
:102150000132A3540132A3540132A3540132A354D7
:102160000132A3540132A3540132A3540132A354C7
:102170000132A3540132A3540132A3540132A354B7
:102180000132A3540132A3540132A3540132A354A7
:102190000132A3540132A3540132A3540132A35497
:1021A0004132A354A365A3670132A354E365E367F7
:1021B0000132A35423661A3AA3501B32A354636618
:1021C000173AA3501832A354A366143AA3501532F9
:1021D000A354E366113AA3501232A35423670E3A74
:1021E000A3500F32A35463670B3AA35001210C3262
:1021F000A1540132A35410BD0D200000A4550000CD
:10220000F0B5DE4657464E464546E0B591B00190E2
:102210000C0015000800C34B984703000100C2489A
:10222000026A9E00C14FF7593A43026222681C209D
:10223000920706D511B03CBC90469946A246AB46E3
:10224000F0BD226801271740F4D1B9483258172051
:102250002E68B242EED36E68B242EBD3E869824296
:1022600000D2B9E1286A824200D2B7E1686A8242AC
:1022700000D2B5E1A86A824200D2B3E19822944626
:10228000AC4462460892002003E001300132082885
:1022900008D01678002EF8D0A64E765C8642F4DC84
:1022A0001720C7E70022029280204004844602E003
:1022B0000132042A0ED0A818007C0128F8D19E48CB
:1022C000405C904200DA8FE160469040029E0643F7
:1022D0000296EDE79D32AA5C002A04D0802212010A
:1022E0000299114302912A7A511E8A419200069264
:1022F0006A7A012A22D0904AD25C110005923522D6
:10230000AA5C8A4200D379E12C21695C0F2900D9AB
:1023100074E1287B0A90E87A0B902D208246AA442B
:10232000002004970EAE0796C0263601B1468446BB
:10233000A046280055460993824635E00699114388
:102340000691D8E792024F463A400A4319798B46E4
:1023500003215F4639400A4316435A7952016021EE
:102360000A40324399790902C026B6000E4016434E
:10237000DA791203E021C9010A4016433443039A73
:1023800014432043624607995050042A2AD09A7C6D
:102390000599914200D831E1597A0A3504239B46C8
:1023A000DC440F2900D929E10906F0231B05194057
:1023B0002B002E783604FF20000406406878802425
:1023C000002800D1049C987808270397002801D1A1
:1023D00004980390D878834610205F46002FB1D12F
:1023E0000498AFE744465546099B524AD25C914651
:1023F0005146503150464130002700220126B24656
:102400000226FF36B34680267602B046A4461C005C
:102410004B460FE00678002E07D0934200D8E7E045
:10242000022E14D056469640374301320131023015
:10243000082A10D00E78002EECD0934200D8D5E0B8
:102440004646964037430678002EE9D1EDE75E46D2
:1024500096403743E9E79946230064466A7E1201B5
:1024600030211140287E07220240114300228020A3
:1024700040020E0002E00132042A0BD0A918097DA7
:102480000029F8D00599914200DCB3E001009140A9
:102490000E43F0E7B24601980200043234300021C6
:1024A00002C28242FCD100220198426382639900F9
:1024B000224A88500460A022A95C643A81540DA984
:1024C000AA7A0A701E4AD65C30001E4B984730002C
:1024D0001D4B98474B46002B3CDD2E005836983359
:1024E0009846A84401239946AB464546A046089C19
:1024F00003E001340436AC422AD02378002BF8D014
:102500000CAB4A469A7000230CAAD3701300202209
:10251000B21812781A704A465A70307819000B4B6C
:102520009847E6E70D2000000004004090550000A9
:10253000A4550000B05500009C55000098020020F2
:10254000A0550000B51E0000291E0000AD1F0000B0
:1025500044465D460A9B1B030B9A12021343029AE0
:10256000134323600422A3681A42FCD1FF23237182
:102570000422A3681A42FCD16B461B7E63710E9B3A
:10258000E3600F9B2361A7611D4AA3681342FCD13E
:102590005346E3631022A3681A42FCD12B6863639D
:1025A000184AA3681342FCD16B682364059800287D
:1025B00022DD1C350021144E32008A40A3681A42E5
:1025C000FCD104CD0B0010339B00E3185A6001319D
:1025D0008842F1DC00202DE617202BE6172029E6A3
:1025E000172027E6172025E6172023E6172021E6E7
:1025F00017201FE617201DE600201BE6172019E60E
:1026000040000200800004000001080070B50D00C9
:1026100004682000074B98478000074BC3581720D9
:10262000AB4200D270BD1022A3681A42FCD1656390
:102630000020F7E70D200000A455000002680421E7
:102640001F2093681942FCD15379834302D0802B19
:10265000F7D109E051791F3319409F3B0B43537168
:10266000042193681942FCD1102193681942FCD1CE
:10267000506B704710B53C23C35C014CA04710BDA4
:1026800041200000920083185960034BD358426BDD
:102690001343436300207047B455000070B5040035
:1026A0000D000068094B9847094B1B5C1F221A401C
:1026B00001239340074A1360AD00074BEA58A36B10
:1026C0001343A36323689A6270BDC0460D200000C7
:1026D000E455000000E100E0B4550000F0B5C64646
:1026E00000B580000E4BC7583B68DE6ABB6B7A6B47
:1026F00013401E4000240B4B984602E00434302C5B
:102700000AD04346E5583542F8D03B195B6838009B
:1027100098473B68DD62F1E704BC9046F0BDC046D7
:1027200098020020B455000010B50020014B9847D6
:1027300010BDC046DD26000010B50120014B9847B2
:1027400010BDC046DD26000010B50220014B9847A1
:1027500010BDC046DD26000070B50402034E044DD6
:1027600073681819A8470528FAD070BDCC0000205E
:10277000490E0000F0B5DE4657464E464546E0B5E8
:1027800083B04D4B1B89002B00D18FE000254A4BB5
:102790009A461F0027E00198484B98470434A4B29A
:1027A000454B1B89A34218D9013B9C42F6D07A685D
:1027B000A301D35CFF2BF1D09E42EFD14B46D35CFB
:1027C0004146515C9942E6D05946525C9A42E2D069
:1027D000A008C0B2394B9847E0E70435ADB2364B9C
:1027E0001B899D4217D2AB01984653465B6842460F
:1027F0009E5CFF2EF1D02C1DA4B22F4B1B899C4256
:1028000009D2802242449146402242449346AA087B
:10281000D2B20192C8E7002B43D0274A977A516879
:1028200000225E1E244D04E00132403190B29842F5
:102830000AD29642F8D0087884B2FF2CF4D0BC4279
:10284000F2D22818C272EFE73F2087221A49885433
:102850009D081FD04C6804210027013B13E0013282
:1028600092B2914207D09A42F9D09001005DFF28C0
:10287000F5D00026F3E7002E09D10137BFB20431AD
:1028800089B2BD4206D00A1F92B20126EBE7872328
:10289000094AD75403B03CBC90469946A246AB4681
:1028A000F0BD3F218723044AD154F3E73F2187231A
:1028B000014AD154EEE7C046CC0000205927000061
:1028C000F8B50D008401054F054E7B6818194022AC
:1028D0002900B0470528F8D0F8BDC046CC0000203C
:1028E000DD0D0000F8B50D008401054F054E7B6835
:1028F000181940222900B0470528F8D0F8BDC04675
:10290000CC000020350D000070B58401044E054D4B
:102910007368191900220420A8470528F8D070BD53
:10292000CC000020950C000010B598B016AB00212B
:10293000197001225A702E4A5268D206120F9A70EC
:10294000D97019712B4C16A8A0470528FBD013A8E5
:10295000294B9847149B16200B2B01D818B010BD9B
:10296000264C23811A00083A5208A2721B049B0AC3
:102970005B428022D2029446634463600022C823F3
:10298000E2541F4B98478723E35C1A203F2BE5D086
:102990006A461C4B13CB13C2184B1889013880B2FE
:1029A0001100194B9847039B009A934219D1049B3D
:1029B000019A934217D1059B029A934215D103AB1A
:1029C000DB7B1020012BC9D103AB1B7B012BC5D1B5
:1029D00003AB5B7B002BC1D10122084B1A70002096
:1029E000BCE71A20BAE71A20B8E71A20B6E7C046B3
:1029F000004000410D0C0000A50E0000CC0000209E
:102A000075270000E8550000C128000070B594B09B
:102A10002F4C00228723E25400202E4B9847258913
:102A2000042D25D90026042419E0A008C0B2294BA2
:102A3000984704AD4022FF212800274B98472E706D
:102A400029002000254B98472000254B9847013648
:102A5000B6B20134A4B21E4B1D89A54208D9013D6E
:102A6000AC42F6D003232340DFD0012BF1D8E0E7BE
:102A700001AE1C4B320013CB13C204AC4022FF2129
:102A80002000154B9847019B049373686360B368FB
:102A9000A3600123E373237300236373A373013DD6
:102AA000EB17032018404519AD10E8B2094B9847C1
:102AB000074D2889013880B22100084B98472889A2
:102AC000013880B2064B9847074B984714B070BD49
:102AD000CC0000205927000037420000E528000004
:102AE00009290000E85500007527000010B590B0D6
:102AF0000C00154B1A781F23002A02D1180010B0C1
:102B000010BD114B9A7A18238242F7D9B0330E4A7E
:102B1000D35C002B03D08823D35C83420CD00A4BB8
:102B20001818C07A6946094B98473C2201A9200031
:102B3000074B98470023E1E73C2203498C312000F2
:102B4000034B98470023D9E7CC000020C1280000A0
:102B500025420000F0B5DE4657464E464546E0B5F4
:102B600093B00500894617003C21234B9847C3B218
:102B7000009303A91800214B98470190002832D1F7
:102B80003C2128001E4B984789B22C00002905D112
:102B900003AB1B784A4613706C1CA4B22600AB46EC
:102BA000B846A84444451EDA154B9A4603AF09E0DF
:102BB0005B46F61A7B5D4A4693550134A4B2260063
:102BC000444510DA3C212000D0478DB2002DEFD1D2
:102BD000009B0133DBB2009339001800074B984784
:102BE0000028E5D00190019813B03CBC904699466E
:102BF000A246AB46F0BDC04631330000ED2A0000CE
:102C00003D34000010B5C823084AD35C002B01D125
:102C1000002010BD14008823D35CD318D87A044B4D
:102C200098470022C823E254F2E7C046CC000020B7
:102C300009290000F0B5DE4657464E464546E0B548
:102C400087B0040000915A4B1B781F20002B06D13F
:102C500007B03CBC90469946A246AB46F0BD544BEB
:102C60009B7A0738A342F3D9C823514AD35C002B7F
:102C700005D08823D35CA34201D04E4B98474C4BE0
:102C80001B19DE7A032331009943494B5868B3017D
:102C90001B5CFF2B47D0751CEDB20431C9B2A942B1
:102CA00057D06B1CDBB2AA01125CFF2A3CD01D007E
:102CB000F5E705AAD218567069E005AFFF187D70D8
:102CC00063E0707802993C4B9847394C2100883179
:102CD000A8B23A4B98474B461B78E318DD720122A5
:102CE000C823E25401370236022F13D087235A46F5
:102CF000D55CAD00ED19D047B146337801998B42D0
:102D0000DFD188232A4AD1543C22009903982C4BC6
:102D10009847DAE7444640462A4B98478723244A97
:102D2000D454002094E73500214E8823F454300019
:102D30008C303C220099224B984731008831A8B250
:102D40001E4B98473419E5720122C823F254002023
:102D50007EE7B30898461B02154A5268D31805AAA5
:102D60001978117003218E4356703D31595C917072
:102D7000711CD1708022985C4032995C0023B51C94
:102D8000033605AAD25C904297D08A4291D0023392
:102D9000042BF6D105AE0027054B9B46054B9A4602
:102DA0005B46883302930433039301949EE7C04645
:102DB000CC000020052C0000C1280000E528000000
:102DC0002542000059270000F0B5DE4657464E4622
:102DD0004546E0B591B00500894690463C212D4B13
:102DE0009847C7B23C2128002B4B984789B200294D
:102DF00035D143463B2B3FD94B461A7801AB1A706D
:102E00006C1CA4B22600AB46A844A04522DD224B90
:102E10009A460AE05B46F61A4B469A5D01AB5A5554
:102E20000134A4B22600444514DA3C212000D047E6
:102E30008DB2002DEED101A93800184B984700281B
:102E400013D10137FFB201A93800154B984700286C
:102E5000E0D00AE001A93800104B984705E001A92D
:102E600038000F4B984700280DD011B03CBC90465D
:102E70009946A246AB46F0BD01A93800084B9847D9
:102E80000028B9D0F1E72E00AB46A844A845ECDDF8
:102E90002C00BCE7313300003D340000352C00002D
:102EA000ED2A0000FEE70000F8B52A4A2A4B9A42B4
:102EB00011D01A00294B9A420DD2294A03339B1A8A
:102EC0009B0801339B000022234822498C588450E0
:102ED00004329A42FAD1234A234B9A420AD2D3436C
:102EE00021495B1803218B4304339B18002102C244
:102EF0009342FCD11D4AFF211D4B8B439360FD394A
:102F000090235B001B4AD1501B4AD3780325AB4367
:102F100002242343D370D3780C27BB4308263343C2
:102F2000D370164B987B3022904320221043987325
:102F3000997BB943314399739A7BAA4322439A738D
:102F40000F4A536880210B4353600E4B98470E4B3A
:102F50009847FEE70C5700000000002068000020A2
:102F60000400002068000020FC02002000ED00E0CA
:102F70000000000000700041005000410048004186
:102F800000400041C941000099320000F0B5C6463A
:102F900000B50C00904600280FD1002A11DD8F18D3
:102FA000094E0A4D306821002B6898470134BC4215
:102FB000F8D1404604BC9046F0BD01235B429846E0
:102FC000F7E78046F5E7C046AC020020A4020020E7
:102FD000F0B5C64600B50E0015000138022810D81D
:102FE000002A11D000240C4B98460C4F4346186819
:102FF000315D3B689847002808DB0134A542F5D1D4
:1030000006E00124644203E0140001E0012464426C
:10301000200004BC9046F0BDAC020020A8020020B5
:103020000300064A1268002A04D0044A1068C31834
:10303000136070470249014A1160F6E798010020C9
:103040000023002001204042704780239B014B60F9
:1030500000207047012070470020704710B5084BD2
:103060009847084B98605B68C31ADA179B1853405F
:10307000C82B03DD034B01221A70586010BDC046F7
:10308000A9010000BC02002010B5034CA068034B4E
:1030900098470223237010BDBC020020910300005A
:1030A000F0B587B0264C636AE518A068254B9847B1
:1030B0000022254B254EB04702000B00002024497A
:1030C000244EB047244B9847244B98472873244DEF
:1030D000A847244EA36A5E43A847656A671980190A
:1030E0002149224B9847B875013565620B2D04D0F4
:1030F0000322134B1A7007B0F0BD002201A810493B
:10310000D30F9B185B10CB181B7B13540232122A6F
:10311000F6D100220A4801AB9918D30F9B185B1017
:10312000C318DB7D4B700232122AF4D1122101A8A0
:103130000F4B9847024B5A7D1A7301225A62D7E708
:10314000BC020020094000000000993FDD3400006F
:1031500000005940DD390000794000009D34000036
:1031600025040000D012130048E8010031330000AC
:103170009D02000010B50020034B9847034B00222E
:103180009A621A7010BDC04639040000BC020020CB
:10319000024A936A013393627047C046BC02002022
:1031A000F8B5184B98470700174B98470500174884
:1031B000174B9847013D07D40024164E395D164839
:1031C000B0470134AC42F9DD144B5B6A012B15D0DA
:1031D000134C00250F4F114E21780F48B847E17A64
:1031E0000D48B8470135736A01349A1EAA42F3D2DA
:1031F0000A4AD318DB7A1373012353620948054B3B
:103200009847F8BDE50200001D030000F4550000DA
:103210008D4400009943000004560000BC020020C9
:10322000C80200200856000070B507490748084B3F
:103230009847002800D070BD064C8025ED056561DB
:10324000054B9847A561F6E70C560000B002002038
:103250003146000080440041A1310000094B0022AA
:103260001A70012159629A625A609A601A73DA756B
:10327000054ADA62054A5A63054A1A63054A9A639F
:103280007047C046BC0200205D300000A130000045
:10329000893000007531000070B5164B9847164B09
:1032A0009847164B1860164B9847164B9847164B85
:1032B0009847164B9847164B9847164B9847164B0E
:1032C0009847164B98470122154B1A70BFF35F8F32
:1032D00062B6144D144C094E2B780A339B00EB1840
:1032E0005B68002098470522210030680F4B984703
:1032F000F2E7C046E11F000091040000B802002080
:1033000099050000A9030000FD030000150100005D
:10331000350300000D020000550200005D32000080
:1033200000000020BC020020B0020020AD17000009
:10333000002243088B4274D303098B425FD3030AF4
:103340008B4244D3030B8B4228D3030C8B420DD307
:10335000FF22090212BA030C8B4202D31212090295
:1033600065D0030B8B4219D300E0090AC30B8B42D3
:1033700001D3CB03C01A5241830B8B4201D38B0381
:10338000C01A5241430B8B4201D34B03C01A524126
:10339000030B8B4201D30B03C01A5241C30A8B4269
:1033A00001D3CB02C01A5241830A8B4201D38B0254
:1033B000C01A5241430A8B4201D34B02C01A5241F8
:1033C000030A8B4201D30B02C01A5241CDD2C3096A
:1033D0008B4201D3CB01C01A524183098B4201D3E6
:1033E0008B01C01A524143098B4201D34B01C01AD1
:1033F000524103098B4201D30B01C01A5241C30849
:103400008B4201D3CB00C01A524183088B4201D3B7
:103410008B00C01A524143088B4201D34B00C01AA3
:103420005241411A00D20146524110467047FFE70F
:1034300001B5002000F006F802BDC0460029F7D013
:1034400076E770477047C046F0B5CE46474615044C
:103450002D0C2E0080B50704140C3F0C9946030C6C
:103460007E435D43674363437F19340CE4199C46F4
:10347000A54203D980235B029846C4444B4651437E
:1034800043433604360C250C24046544A41959180A
:10349000491920000CBC90469946F0BD41024300FA
:1034A000C20F490A1B0E00207E2B0DDD9D2B0CDC6C
:1034B000802000040143952B0ADC9620C31AD940D2
:1034C0004842002A00D108007047034BD018FBE7A0
:1034D000963B9940F4E7C046FFFFFF7FF0B55746A3
:1034E0004546DE464E46E0B50C0398464E00230B9B
:1034F00087B0070092469B46760DCD0F002E6BD00D
:103500006D4B9E4235D080245B46420F2404DB0085
:1035100014431C43C3009946684BA3469C460023B2
:1035200000276644029343461C035A00DB0F5046B3
:10353000240B520D984600D176E05F4B9A426DD035
:103540008023410F1B040B435C49E4008C461C4361
:10355000C300002062444146B6186940721C0191C4
:10356000944607430F2F00D9B0E0554ABF00D25907
:1035700097465B460343994600D087E000239B466D
:10358000023308270293CEE742460192022867D011
:10359000032800D10EE2012800D062E100230024BC
:1035A0000022994601990140CDB2002112030B0D72
:1035B000120B1B051343434A240513401C436400AC
:1035C000ED0764082C434846210007B03CBC9046F8
:1035D0009946A246AB46F0BD034399464FD05B46A1
:1035E000002B00D189E1584600F0D0FD03000B3BD1
:1035F0001C2B00DD7AE11D22D31A3A0001005C4643
:10360000DA4008398C4013008F4023439B46B9466B
:1036100000232D4E0027361A029384E75346234396
:103620002AD10024022096E75346234320D0002CC1
:1036300000D157E1200000F0A9FD03000B3B1C2B3B
:1036400000DD49E11D21CB1A51460200D940534605
:10365000083A944093400C431B4A121A00207AE720
:103660000125019B144C1D400023002299469CE734
:103670000024002201206EE7534603206BE700235D
:103680009B4601330427002602934CE7032381461F
:103690000C27029347E78022002300251203994656
:1036A000054C82E75C464B4602986FE75C464B460A
:1036B000019502986AE7C046FF07000001FCFFFF82
:1036C00014560000FFFF0F800DFCFFFF4A464946DD
:1036D000170C1A0C1B041B0C08041900000C4143A6
:1036E0001500884619007D437943039589462900D2
:1036F000150045434D44029545462D0CAA46029DB2
:103700005544A94506D98A46802149028946CA44BA
:1037100051460391290C0491414609042D04090CDA
:1037200088462900250C24044144240C05912100DD
:1037300041438846210079438A46684341465044C4
:103740008146080C48446F43824503D980214902D1
:1037500089464F44010C894639004944029141464B
:103760000F0404993F0C88460004C0198044414668
:10377000049159460F0C0904090C884659438A469E
:1037800039005143894641464A435146090C8B460C
:103790007B43D2185A44934203D980235B029B4651
:1037A000D94451460904090C8A46414661437C4389
:1037B000130C12044B445244A1468A463C00414635
:1037C0006C434D4351464D440F0C7D19A94503D917
:1037D0008021490288464444049F0399B8464144E5
:1037E0008B468345804141428846514608042F0458
:1037F000000C3F1858460299101889469042924191
:103800004F44BA46524299469346C244D144CB44AF
:103810008F42BF41C245894199459B4193459241A1
:103820007F4249422D0C52420F435B4213437F19A2
:10383000FF185B463C19DB0D059A64021C434302EA
:1038400013435D1EAB415A46C00D0343520213435E
:10385000E20156D501205A0803401343E2071343FF
:1038600064085A48604400284DDD5A0709D00F22E9
:103870001A40042A05D01A1D9A429B415B42E41863
:103880001300E20104D58020514AC0001440604476
:10389000504A904200DDE3E60125DB0862071A4347
:1038A0006402019B9146220B4405640D1D407CE699
:1038B000802259461203114208D0144206D12243F5
:1038C0001203120B45469946434C6EE65B461A437B
:1038D0001203120B404C68E603005446283B9C4000
:1038E0000023B9E600F052FC2030A6E60300283B96
:1038F0009F400023BB4699468AE600F047FC2030F3
:1039000074E6B446ADE701252A1A382A06DD019B84
:1039100000241D4000230022994646E61F2A21DC90
:1039200020252000AD1A1E00AB40A840D6405D1EE9
:10393000AB4130431843D440430709D00F23034021
:10394000042B05D00300181D98429B415B42E418EC
:10395000230221D50125019B01241D4000230022C3
:10396000994622E61F2521006D42281AC140080011
:10397000202A1DD05F35AA1A944023435C1EA34120
:10398000072503431D400022002D09D00F220024EB
:103990001A401800042AD6D1030065076402220BDE
:1039A000DB082B4301259946019B00241D40FCE5C3
:1039B0000024E2E780220125120322430199120329
:1039C000120B0D409946044CEFE5C046FF03000082
:1039D000FFFFFFFEFE070000FF070000F0B54646B0
:1039E000D6464F460C03C0B5CD0F4E00610A440FBA
:1039F0000C43C1005800400D84468A460F0019034D
:103A0000500F490A0143C648760DA846DB0FD20085
:103A1000844500D1D8E001204340AB4200D1A6E06C
:103A20006046351A002D00DC05E1002810D10B009E
:103A3000134300D1D7E06B1E002B00D04BE153465F
:103A40009F1ABA458041641A4042241A01261EE09A
:103A5000B34B9E4248D080231B041943382D00DD10
:103A600019E11F2D00DD4CE120230F005B1B10002E
:103A70009A409F40E840531E9A41E940074317434C
:103A80005346DF1B611ABA45A44164420C1B230252
:103A900000D4C5E06402650A002D00D1F6E02800DC
:103AA00000F074FB0300083B1F2B00DDE9E020223F
:103AB0003C00D21A9D40D4409F4025439E4200DDE9
:103AC000DBE09E1B731C1F2B00DD0AE12022380067
:103AD000D21A290097402C009140D8407A1E974175
:103AE000DC40002601430F437B0709D00F233B40F6
:103AF000042B05D03B1DBB42BF417F42E4191F0090
:103B0000230225D5864B01369E4200D1AFE0854B7E
:103B100001251C4043466207FF08640276051743EF
:103B2000240B760D1D4000212403230B0C0D7E4A2F
:103B300024051C431440330523435B00ED075B0859
:103B40002B43380019001CBC90469946A246F0BD94
:103B5000012543466207FF081743E4081D40704BE8
:103B60009E4236D024037605240B760DDBE76346B0
:103B7000F31A002B00DC94E06046002835D068483A
:103B80008642B1D080273F043943382B00DCFDE06A
:103B90000A43170000217A1E974157445745804138
:103BA000091944420C1923023AD55D4B01369E4255
:103BB00000D14BE101225B4B1C407B0817401F43A7
:103BC000E207174364088FE70800104300D024E79A
:103BD00021E723003B4300D1B9E1802212031443C3
:103BE0002403240B9FE72E007EE70800104300D13A
:103BF000CAE0581E8446002800D0E7E052445245EF
:103C0000804164184042241817000126230207D57A
:103C10000226CFE764462C4300D1B3E12C0067466F
:103C20007B0700D062E76307FF081F430125434677
:103C3000E4081D4093E7002D78D1751C6D056D0DCE
:103C4000012D00DCF2E05046801A8245BF41651A22
:103C50007F42ED1B8446280200D48CE05046171AA0
:103C6000BA4292410C1B5542651B984614E7012548
:103C7000434600241D40002755E72A4CF61A2C40E5
:103C800032E73D0028388540002717E7380000F06C
:103C90007DFA203006E70A43170000217A1E97417B
:103CA000EEE6002B00D0E5E0731C9C465B055B0D47
:103CB000012B00DC9FE01A4B9C4500D1C5E052442B
:103CC00052458041641840422418E70752081743C0
:103CD0006408664608E71248854200D185E01D0069
:103CE000BCE629001F3EF140202B00D17FE040229E
:103CF000D31A9D402F437D1EAF4100240F43002661
:103D00008EE72B000F00203BDF40202D71D0402399
:103D10005D1BA9400A43511E8A4100211743AFE6AB
:103D2000FF070000FFFF7FFFFFFF0F80002E3ED048
:103D3000B34EB44545D0802636046D423443382D09
:103D400000DDA8E01F2D00DD1FE1202627005046E2
:103D5000761BB740E84007435046B040461EB0418E
:103D6000EC403843171ABA4292410C1B5242A41A33
:103D7000664698468BE6644667462C4300D08BE641
:103D8000002500260027EAE61E00ADE61F2B60DCBA
:103D90002027F81A0F00844687401000D8400743B8
:103DA00060468240501E8241D9401743F5E6260006
:103DB0005046064305D0ED43002DD3D0904EB44578
:103DC000BDD10C001700664698468DE68C488342AC
:103DD0000BD06346D9E6002D00D096E008001043D2
:103DE00000D1E2E00C0017009846854E7CE60025E5
:103DF00080E700218EE7230050460343002E00D0C9
:103E0000A8E0002B00D1DEE00B00134300D16BE6ED
:103E1000524452458041641840422418170023023E
:103E200000D4FDE6774B66461C405DE62500504613
:103E30000543002ECFD1002D4FD10C00144300D1EB
:103E4000A0E00C00170098464EE6664600240027C6
:103E500085E61F000800203FF8400700202B00D116
:103E60008EE04020C31A99400A43511E8A41002126
:103E7000174392E6002E14D126005046064362D026
:103E8000DB43002B5CD18718974292416418524261
:103E9000A418664687E650462043441EA0410024ED
:103EA00060E7574EB4454ED0802636045B4234431B
:103EB000382B00DD7FE01F2B00DD8BE02026270064
:103EC0005046F61AB740D84007435046B040461E09
:103ED000B0410743DC40BF18D6E70D00154300D1C1
:103EE00002E65046801A8245BF41651A7F42ED1BAB
:103EF0008446280200D48DE65046171ABA429241F1
:103F00000C1B5242A41A9846EEE50D00154300D151
:103F10006BE750466707C00807438020E4080003AA
:103F2000044207D0CD08054204D12C009846D7089A
:103F300049070F437B0FE4001C43FF00304ED3E5DD
:103F40002F4EB445B4D10C0017006646CCE50027CF
:103F50000024E8E5002B39D00B00134300D144E7DF
:103F6000C008670707438020E40800030442E1D04B
:103F7000CB080342DED1D70849070F431C00D9E71D
:103F8000002171E700250027E9E52E002700203EEB
:103F9000F740202D2FD04026751BAC4050462043C3
:103FA000441EA04100243843DCE68024002524037D
:103FB000134E0027D3E5504620430700781E874163
:103FC0000024BF1860E70C0017008DE50C001700F7
:103FD0000B4E89E51E002700203EF740202B0CD019
:103FE0004026F31A9C4050462043441EA0410743FC
:103FF0000024BF1848E70024D0E70024F3E7C046B8
:10400000FF070000FFFF7FFF10B5041E28D000F05F
:10401000BDF8154B154A1B1AD21A1F2A15DD144A72
:10402000D21A9440002224035B05240B5B0D00216F
:10403000100024030A0D240B120522430D4C1B050E
:10404000224013435B00590810BD210091400A0033
:104050000B21081AC4405B052403240B5B0DE6E723
:10406000002300240022E2E71E04000033040000C5
:1040700013040000FFFF0F80F0B54C00640D0B032C
:10408000621C450F5B0A52052B43C90FC500520D38
:10409000012A28DD3A4AA618FE2E1BDC002E3EDD42
:1040A00080010200501E82416D0F2A43DB00134342
:1040B0005A0704D00F221A40042A00D00433802269
:1040C000D2041A405AD00136FF2E03D09B015B0A5E
:1040D000F4B201E0FF2400235802E405400AC907B6
:1040E00020430843F0BD002C07D01D43F2D08020B0
:1040F000DB0080040343FF26DAE72B4303D00523CC
:10410000DB08FF2C03D05B025B0AE4B2E4E7002B80
:1041100032D08020C00303435B025B0ADCE732003D
:10412000173214DB80221E2712041343BF1B1F2FDC
:104130000FDC144A944664442A00A5402E00A34094
:10414000751EAE41FA40334313430026B0E7002406
:10415000D5E702225242961B1A00F240202F09D0C6
:10416000094884466444A3402B435D1EAB410026AE
:1041700013439DE70023F7E70023ADE73400BFE7D3
:1041800080FCFFFF82FCFFFFA2FCFFFF1C2101233C
:104190001B04984201D3000C10391B0A984201D32A
:1041A000000A08391B09984201D30009043902A208
:1041B000105C40187047C04604030202010101016F
:1041C000000000000000000070B500260C4D0D4CF2
:1041D000641BA410A64209D1002601F087FA0A4DFB
:1041E0000A4C641BA410A64205D170BDB300EB5865
:1041F00098470136EEE7B300EB5898470136F2E7EF
:10420000F8560000F8560000F8560000FC56000072
:1042100010B5034B0100186800F060F810BDC046EF
:1042200004000020002310B59A4200D110BDCC5CE0
:10423000C4540133F8E703008218934200D1704759
:1042400019700133F9E7000070B50500002910D09E
:104250000C1F2368002B00DAE418280000F0B2FCE1
:104260001D4A1368002B05D163601460280000F01C
:10427000AAFC70BDA34209D9216860188342F3D11A
:1042800018685B6841182160EEE713005A68002A3D
:1042900001D0A242F9D919685818A0420BD1206860
:1042A0000918581819608242E0D110685268411804
:1042B00019605A60DAE7A04202D90C232B60D5E7D7
:1042C00021686018824203D1106852684118216049
:1042D00062605C60CAE7C0469C010020032370B5A1
:1042E000CD1C9D43083506000C2D1ED20C25A9427D
:1042F0001DD8300000F066FC254A14682100002912
:1043000019D1244C2368002B03D1300000F0C8F8E9
:1043100020602900300000F0C3F8431C2CD10C238E
:104320003000336000F04FFC03E0002DDFDA0C2397
:104330003360002070BD0B685B1B1AD40B2B03D9B4
:104340000B60CC18256003E08C420ED163681360CB
:10435000300000F038FC200007220B30231D904372
:10436000C31AE7D05A42E250E4E74B6863600C009E
:10437000EEE70C004968C2E70323C41C9C43A0423B
:10438000E0D0211A300000F08BF8431CDAD1C6E7E8
:104390009C010020A00100200FB40B4B13B51C683A
:1043A000002C05D0A369002B02D1200000F00EFBE9
:1043B00005AB049AA1682000019300F02DFC16BC07
:1043C00008BC04B01847C0460400002070B50500C2
:1043D0000E00002804D08369002B01D100F0F6FA0A
:1043E000AB69AC68002B02D1280000F0EFFA244B37
:1043F0009C420FD16C68A3891B0702D52369002B4F
:1044000020D12100280000F073F900281AD00120E3
:10441000404270BD1B4B9C4201D1AC68EBE71A4B8C
:104420009C42E8D1EC68E6E7013B0136A360002B33
:1044300004DAA269934216DB0A2914D023685A1CB5
:10444000226019703178A3680029EDD1013BA36087
:10445000002B0FDA22000A31280000F0F3F8431C89
:10446000D5D00A20D5E72200280000F0EBF8431C45
:10447000E8D1CCE70A2023685A1C22601870C8E7EC
:1044800078560000985600005856000010B5034BAF
:1044900001001868FFF79AFF10BDC0460400002015
:1044A000002370B5064C050008002360FEF7B8FD38
:1044B000431C03D12368002B00D02B6070BDC04685
:1044C000F80200204A424A41802310B55200DB0026
:1044D00000F002F810BD0000F0B51D004F4B85B094
:1044E0001E6804000F000092002E05D0B369002B57
:1044F00002D1300000F06AFA494B9C4250D17468F6
:10450000009B022B05D0012B00D984E0002D00DA9E
:1045100081E02100300000F0EBF9616B002908D048
:1045200023004433994202D03000FFF78DFE002370
:1045300063630023A3616360A3891B0603D521691C
:104540003000FFF781FEA389364A1340A381009B08
:10455000022B5AD003AB02AA2100300000F0CCFAA3
:10456000A3891843A081002D24D1029D2800FFF7C4
:104570004FFE0195071E42D1029B0193AB4239D1F8
:10458000012040420223A2891343A3810023A36098
:1045900023004733236023610123636105B0F0BD2D
:1045A000214B9C4201D1B468AAE7204B9C42A7D181
:1045B000F468A5E7002FD9D0B369002B02D13000F1
:1045C00000F004FA009B012B03D1A389009A1A433F
:1045D000A2810820A389276027616561184018D04F
:1045E000012018400023984211D06D42A360A561BC
:1045F0001800D3E70198FFF70BFE071EC0D08023F9
:10460000A289019D1343A381D6E70020BAE7A560E4
:10461000C4E7A060C2E701204042BFE704000020D9
:10462000785600005CF3FFFF9856000058560000D3
:1046300002780B78002A03D0013001319A42F7D07A
:10464000D01A7047F8B505000E001400002804D0F9
:104650008369002B01D100F0B9F9224B9C422DD186
:104660006C68A369A360A3891B0731D52369002B5C
:104670002ED023682269F7B2981A6369F6B298427D
:1046800005DB2100280000F033F9002826D1A368BB
:104690000130013BA36023685A1C22601F706369CC
:1046A000984204D0A389DB071AD50A2E18D121001D
:1046B000280000F01DF9002812D00FE00A4B9C42A0
:1046C00001D1AC68CDE7094B9C42CAD1EC68C8E780
:1046D0002100280000F00CF80028CAD001267642FC
:1046E0003000F8BD7856000098560000585600007B
:1046F000364B70B51D6806000C00002D05D0AB6967
:10470000002B02D1280000F061F9314B9C420FD1FF
:104710006C680C23E25E93B219072DD4D90611D42C
:1047200009230120336037331343A381404270BD16
:10473000284B9C4201D1AC68EBE7274B9C42E8D167
:10474000EC68E6E75B0713D5616B002908D023000E
:104750004433994202D03000FFF776FD00236363B3
:104760002422A3899343A3810023636023692360E8
:104770000823A2891343A3812369002B0BD1A02115
:104780008022A389890092000B40934203D021002C
:10479000300000F0D9F90123A289134011D0002381
:1047A000A36063695B42A361002023698342BED199
:1047B0000C23E25E1306BAD540231343A3810138CC
:1047C000B5E7920700D46369A360EDE70400002019
:1047D000785600009856000058560000F7B58A89B0
:1047E00005000C00130760D44B68002B04DC0B6C35
:1047F000002B01DC0020FEBDE76A002FFAD0002369
:104800002E682B6080235B011A4034D0606DA38931
:104810005B0706D56368C01A636B002B01D0236C5D
:10482000C01A0200216A00232800E76AB847A1895C
:10483000431C06D12B681D2B31D82C4ADA40D307F4
:104840002DD50023636023692360CB0405D5431C69
:1048500002D12B68002B00D16065616B2E600029AE
:10486000C8D023004433994202D02800FFF7ECFC63
:1048700000206063BFE70123216A2800B847431C7A
:10488000C5D12B68002BC2D01D2B01D0162B01D116
:104890002E60AFE74023A2891343A381ABE74023F7
:1048A0000B430120A3814042A5E70F69002FA1D04F
:1048B0000B680F60DB1B01930023920700D14B694B
:1048C000A360019B002B00DC94E7019B3A00216A66
:1048D0002800A66AB047002803DC4023A2891343BE
:1048E000DFE7019B3F181B1A0193EAE70100402014
:1048F0000B6970B505000C00002B01D1002070BDC4
:10490000002804D08369002B01D100F05FF80B4B25
:104910009C4209D16C680C22A35E002BEED02100D2
:104920002800FFF75BFFEAE7054B9C4201D1AC682A
:10493000F1E7044B9C42EED1EC68ECE778560000BE
:10494000985600005856000010B5024900F0B2F821
:1049500010BDC046F1480000002310B504000360FC
:104960004360836081814366C281036143618361E7
:10497000190008225C30FFF75EFC054B246263627D
:10498000044BA362044BE362044B236310BDC04697
:104990006151000089510000C1510000ED5100003B
:1049A00070B568254A1E55430E0029007431FFF783
:1049B00095FC041E08D000212A00016046600C30DE
:1049C000A0606832FFF737FC200070BD836913B523
:1049D0000400002B28D18364C3640365134B144A7D
:1049E0001B6882620193984201D1012383612000F8
:1049F00000F020F86060200000F01CF8A0602000AB
:104A000000F018F80022E06004216068FFF7A4FFBE
:104A100001220921A068FFF79FFF02221221E0680E
:104A2000FFF79AFF0123A36113BDC046545600004F
:104A300049490000F8B51E4B07001E68B369002BFA
:104A400002D13000FFF7C2FF4836B4687368013BFB
:104A500004D53368002B07D03668F6E70C22A55E34
:104A6000002D0DD06834F2E704213800FFF798FFDD
:104A700030600028F0D10C2304003B602000F8BD1A
:104A8000012320005B42E3810233A3816566256038
:104A9000A560656025616561A561082229005C301B
:104AA000FFF7C9FB6563A563A564E564E6E7C04657
:104AB00054560000F7B50400070000260191483461
:104AC000002C01D13000FEBD6368A5680093009BF7
:104AD000013B009301D52468F2E7AB89012B08D98B
:104AE0000E22AB5E013304D029003800019B9847A9
:104AF00006436835EBE7000070B50E001D000E237D
:104B0000C95E90B01400002907DA00232B60B38936
:104B10001B0611D48023DB000FE001AA00F092FBFA
:104B20000028F2DBF022029B12021340054A9B1878
:104B30005A4253412B60EDE740230020236010B020
:104B400070BDC04600E0FFFFF7B502268B89050067
:104B50000C00334206D02300473323602361012336
:104B60006361F7BD01AB6A46FFF7C6FF0099070016
:104B70002800FFF7B3FB002806D10C22A35E9A059C
:104B8000EFD41E43A681E6E70D4BAB628023A289DA
:104B900020601343A381009B20616361019B002B74
:104BA0000AD00E23E15E280000F05EFB002803D04F
:104BB0000123A2891343A381A0893843A081D0E7B0
:104BC0004949000070477047936810B5013B9360F6
:104BD000002B05DA9469A34208DBCBB20A2B05D07F
:104BE0001368581C10601970C8B210BDFFF72AFD79
:104BF000FBE7F8B506000F001400D518AC4201D150
:104C0000002007E021783A003000FFF7DDFF013493
:104C1000431CF3D1F8BD0000F0B59FB006000F00B3
:104C200014000593002804D08369002B01D1FFF7FD
:104C3000CDFE7F4B9F425CD17768BB891B0762D555
:104C40003B69002B5FD0002306AD6B6120336B7690
:104C50001033AB760294029C2378002B5DD1029B2B
:104C6000E31A04930DD0049B029A39003000FFF739
:104C7000C0FF431C00D1CCE06A69049B94466344A6
:104C80006B612378002B00D1C3E001220023524244
:104C90006A6002A95432521801342B60EB60AB6099
:104CA0001370AB6521780522624800F003FB631C9A
:104CB0009C46002835D12968CB0604D5532302AA87
:104CC00020309B1818700B0704D553232B2002AA01
:104CD0009B18187023782A2B2CD000200A21099BBE
:104CE0002278303A092A00D86BE000282AD00993AC
:104CF00028E0514B9F4201D1B7689EE74F4B9F423E
:104D00009BD1F76899E739003000FFF7F1FC0028E4
:104D100099D0012040421FB0F0BD252B9FD0013417
:104D20009AE7444B2968C01A012383400B432B6048
:104D30006446B7E7059B181D1B680590002B3ADBFE
:104D40000993644623782E2B0BD16378621C2A2B9F
:104D50003FD1059B02341A1D1B680592002B35DBE1
:104D6000079321780322364800F0A4FA002807D0E0
:104D7000334B2A68C01A4023834013432B6001340D
:104D80002178631C06222F480293297600F092FABC
:104D9000002844D02C4B002B2FD12968059B0722DB
:104DA000C90528D59B189343083305936B69039A6B
:104DB0009B186B614FE75B42EB6002230B432B6058
:104DC000BFE74B4301349B18012089E701235B4275
:104DD000C6E7002314000A201A006B6021783039DE
:104DE000092903D9002BBCD00792BAE7424301340A
:104DF00052180123F2E70733D5E705AB00933A00D9
:104E0000124B2900300000E000BF0390039B0133E8
:104E1000CCD1BB895B0600D57BE70B987BE705AB64
:104E200000933A00094B2900300000F07FF8ECE7CE
:104E300078560000B85600009856000058560000FA
:104E4000BE560000C256000000000000F34B0000F8
:104E5000F7B5150001938A680B6900900C00934226
:104E600000DA130022002B6043321278002A01D0AE
:104E700001332B6023689B0602D52B6802332B601D
:104E8000062723681F4027D0230043331B785A1E70
:104E900093412268920630D422000199433200984F
:104EA000089EB047431C25D0062320682A68E16885
:104EB00003400025042B03D18D1AEB43DB171D4063
:104EC000A3682269934201DD9B1AED180027BD42B9
:104ED00020D1002010E00137E3682A689B1A9F4226
:104EE000D2DA22000123193201990098089EB047B6
:104EF000431CF0D101204042FEBD3020E118433177
:104F0000087021005A1C45310978A2184332023337
:104F10001170C1E7220001231A3201990098089EFE
:104F2000B047431CE6D00137D1E70000F0B58BB0A5
:104F300006920A0043320793059004920A7E0C0001
:104F4000109B6E2A00D18FE017D8632A2CD008D886
:104F5000002A00D199E0582A54D0260042363270F7
:104F600029E0642A01D0692AF7D121681A68080665
:104F700023D5111D1960156825E0732A00D188E03A
:104F800008D86F2A29D0702AE7D1202209680A435D
:104F9000226003E0752A20D0782ADED12200782111
:104FA000453211706C4A30E00E001A684236111D0D
:104FB000196013683370012379E04906D9D5111DB2
:104FC00019600023D55E002D03DA2D23049A6D426B
:104FD0001370624B0A2703932FE0206819680506B7
:104FE00003D5081D18600D6805E04006F9D50D6869
:104FF000081D1860ADB2594B082703936F2A18D0CB
:105000000A2716E045310A70544A03921A6821684B
:10501000101D18601568080622D5CB0702D520237D
:10502000194321601027002D03D1202322689A43C1
:1050300022602300002243331A706368A360002BB0
:105040005CDB0422216891432160002D58D1049E2D
:10505000002B64D02600039B42361B7833705EE041
:105060004806DAD5ADB2D8E709681A68080605D54A
:10507000111D1960136862691A6006E04906F7D5C8
:10508000111D19601368A28A1A800023049E2361EF
:1050900054E01A68111D196016680021626830001A
:1050A00000F008F9002801D0801B6060636823616C
:1050B0000023049A137041E0236932000699059891
:1050C000079DA847431C43D0236800259B070FD4A6
:1050D000099BE06898423DDA18003BE0220001237A
:1050E000193206990598079EB047431C30D0013508
:1050F000E368099A9B1A9D42F0DBE9E7002DA9D0ED
:10510000049E28003900FEF799F9039B013E5B5C81
:10511000280033703900FEF70BF9051EF1D1082F76
:1051200009D12368DB0706D563682269934202DC54
:105130003023013E3370049B9B1B2361079B09AA0C
:1051400000932100069B0598FFF782FE431CB3D114
:10515000012040420BB0F0BDDA560000C9560000F5
:1051600070B50C000E25495F00F0B0F8002803DB95
:10517000636D1B18636570BDA389024A1340A38148
:10518000F9E7C046FFEFFFFFF8B51F008B89050068
:105190000C001600DB0505D50E23C95E0022022394
:1051A00000F074F8A389054A28001340A381320057
:1051B0000E23E15E3B0000F01FF8F8BDFFEFFFFF9C
:1051C00070B50C000E25495F00F060F8A389421C01
:1051D00003D1054A1340A38170BD802252011343BD
:1051E000A3816065F8E7C046FFEFFFFF10B50E230F
:1051F000C95E00F015F810BD70B50500080011007B
:105200000022064C22601A00FDF7E2FE431C03D187
:105210002368002B00D02B6070BDC046F802002030
:10522000002370B5064C050008002360FDF70AFF57
:10523000431C03D12368002B00D02B6070BDC046F7
:10524000F8020020002370B5064C0500080011008C
:105250002360FDF7FAFE431C03D12368002B00D026
:105260002B6070BDF8020020002370B5064C0500CD
:1052700008002360FDF7EEFE431C03D12368002BDA
:1052800000D02B6070BDC046F802002070B505004C
:10529000080011000022064C22601A00FDF7DCFE17
:1052A000431C03D12368002B00D02B6070BDC04687
:1052B000F8020020C9B28218904201D10020704744
:1052C00003788B42FBD00130F6E7000070B5050093
:1052D000080011000022064C22601A00FDF756FE5D
:1052E000431C03D12368002B00D02B6070BDC04647
:1052F000F80200207A080000C60A0000C60A000072
:10530000C60A0000C60A0000C60A0000C60A00005D
:10531000C60A0000C60A0000C60A0000C60A00004D
:10532000C60A0000C60A0000C60A0000C60A00003D
:10533000C60A000062080000C60A0000C60A000093
:10534000C60A0000C60A0000C60A0000C60A00001D
:10535000C60A0000C60A0000C60A0000C60A00000D
:10536000C60A0000C60A0000C60A0000C60A0000FD
:10537000C60A000072080000C60A0000C60A000043
:10538000C60A0000C60A0000C60A0000C60A0000DD
:10539000C60A0000C60A0000C60A0000C60A0000CD
:1053A000C60A0000C60A0000C60A0000C60A0000BD
:1053B000C60A00006A080000820800004A080000CF
:1053C0005A0800005208000002000000030000001C
:1053D0002800000029000000040000000500000073
:1053E000060000000700000020000000210000006F
:1053F000220000002300000024000000250000001F
:10540000260000002700000008000000090000003E
:105410000A0000000B0000001C0D00001C0D000025
:10542000F80C00001C0D0000F80C0000DE0C000061
:10543000DE0C00001C0D00001C0D00001C0D000007
:105440001C0D00001C0D00001C0D00001C0D0000B8
:105450001C0D00001C0D00001C0D00001C0D0000A8
:105460001C0D00001C0D00001C0D00001C0D000098
:105470001C0D00001C0D00001C0D00001C0D000088
:105480001C0D00001C0D00001C0D00001C0D000078
:105490001C0D00001C0D00001C0D00001C0D000068
:1054A0001C0D00001C0D00001C0D00001C0D000058
:1054B0001C0D00001C0D00001C0D00001C0D000048
:1054C0001C0D00001C0D00001C0D00001C0D000038
:1054D0001C0D00001C0D00001C0D00001C0D000028
:1054E0001C0D00001C0D00001C0D00001C0D000018
:1054F0001C0D00001C0D00001C0D00001C0D000008
:105500001C0D00001C0D00001C0D00001C0D0000F7
:105510001C0D00001C0D0000F80C0000F80C000031
:10552000000D0000000D0000000D0000000D000047
:1055300000080042000C004200100042001400422B
:1055400000180042001C0042721900006E19000091
:105550006E190000D0190000D01900008619000053
:10556000781900008C190000BE190000101B000003
:10557000F01A0000F01A00007C1B0000021B000063
:105580001E1B0000F41A00002C1B00006C1B000006
:1055900000010000000200000004000004020200FC
:1055A0001A1A1B00FFFFFF00FFFFFF00FFFF0000B4
:1055B00008040200010000000200000004000000D6
:1055C0000800000000100000002000000040000063
:1055D0000080000000000100000002000000040044
:1055E000000008000F101100454574414D4F525006
:1055F0002E756D454461646F73206C69646F733AF6
:105600000000000025640A0066696D00656E766919
:1056100065000000CC3600008C3500008C350000A1
:1056200088350000A4360000A4360000963600003D
:1056300088350000A436000096360000A43600002D
:1056400088350000AC360000AC360000AC360000F7
:10565000B03800000800002000000000000000003A
:10566000000000000000000000000000000000003A
:10567000000000000000000000000000000000002A
:10568000000000000000000000000000000000001A
:10569000000000000000000000000000000000000A
:1056A00000000000000000000000000000000000FA
:1056B0000000000000000000232D302B2000686C4B
:1056C0004C00656667454647003031323334353625
:1056D000373839414243444546003031323334355E
:1056E000363738396162636465660000F8B5C046D4
:1056F000F8BC08BC9E467047DD000000F8B5C04607
:0C570000F8BC08BC9E467047B5000000D5
:10570C000100000008000020000000007856000096
:10571C0098560000585600000000000000000000E1
:10572C00000000000000000000000000000000006D
:10573C00000000000000000000000000000000005D
:10574C00000000000000000000000000000000004D
:10575C00000000000000000000000000000000003D
:08576C00000000000000000035
:0400000300002EA922
:00000001FF
